:100000000C9434000C943E000C943E000C943E0082
:100010000C943E000C943E000C943E000C943E0068
:100020000C943E000C943E000C943E000C943E0058
:100030000C943E000C943E000C943E000C943E0048
:100040000C943E000C943E000C943E000C943E0038
:100050000C943E000C943E000C943E000C943E0028
:100060000C943E000C943E0011241FBECFEFD8E04C
:10007000DEBFCDBF0E9440000C9455000C940000E0
:1000800084B18C6084B92098289A9CE01899FECF9E
:1000900085B1892785B92FEF35EA8EE021503040B0
:0E00A0008040E1F700C00000F1CFF894FFCFE0
:00000001FF
